:100000000C94D9000C9401010C9401010C94010191
:100010000C9401010C9401010C9401010C94010158
:100020000C9401010C9401010C9401010C94010148
:100030000C9401010C9401010C9401010C94010138
:100040000C9437040C9401010C9437080C947A0832
:100050000C9401010C9401010C9401010C94010118
:100060000C9401010C940101005EBCE2613FDD8350
:10007000C29C7E20A3FD1F419DC3217FFCA2401E88
:100080005F01E3BD3E6082DC237D9FC1421CFEA078
:10009000E1BF5D0380DE3C62BEE0025CDF81633D68
:1000A0007C22C09E1D43A1FF4618FAA427799BC558
:1000B00084DA3866E5BB5907DB856739BAE4065848
:1000C0001947A5FB7826C49A653BD987045AB8E638
:1000D000A7F91B45C6987A24F8A6441A99C7257B28
:1000E0003A6486D85B05E7B98CD2306EEDB3510F18
:1000F0004E10F2AC2F7193CD114FADF3702ECC9208
:10010000D38D6F31B2EC0E50AFF1134DCE90722CF7
:100110006D33D18F0C52B0EE326C8ED0530DEFB1E7
:10012000F0AE4C1291CF2D73CA947628ABF51749D7
:100130000856B4EA6937D58B5709EBB536688AD4C7
:1001400095CB2977F4AA4816E9B7550B88D6346AB7
:100150002B7597C94A14F6A8742AC896154BA9F7A7
:10016000B6E80A54D7896B35010204081020408094
:1001700001020408102001020408102004040404F1
:100180000404040402020202020203030303030341
:1001900000000000230026002900000000002500C8
:1001A00028002B0000000000240027002A006F0117
:1001B000360911241FBECFEFD8E0DEBFCDBF15E05A
:1001C000A0E0B1E0E2EAFCE102C005900D92A638A1
:1001D000B107D9F726E0A6E8B5E001C01D92AC341E
:1001E000B207E1F711E0C2EBD1E004C02297FE01B3
:1001F0000E944B0ECE3AD107C9F70E9498070C9483
:10020000050C0C94000040E855E260E070E082EAE2
:1002100095E00E94B50882EA95E00E94630568EEC9
:1002200073E080E090E00E94B00461E071E082EA57
:1002300095E00E94770568E371E082EA95E00E940C
:100240005A056DE671E082EA95E00E94770563E861
:1002500071E082EA95E00E945A054AE050E065E0CC
:1002600070E082EA95E00E942C0667EA71E082EA7B
:1002700095E00E94770567EC71E082EA95E00E94C4
:1002800077056FEF71E082EA95E00E94770565E3FC
:1002900072E082EA95E00E94770582EA95E00E948A
:1002A000630564E672E082EA95E00E94770560EA01
:1002B00072E082EA95E00E9477056CED72E082EAD6
:1002C00095E00E94770564E173E082EA95E00E9480
:1002D000770564E573E082EA95E00C94770565E0C4
:1002E0008BE895E00C94000B8F929F92AF92BF9297
:1002F000CF92DF92FF920F931F93CF93DF93CDB7EF
:10030000DEB7C857D1090FB6F894DEBF0FBECDBF18
:1003100080910001882391F064E873E082EA95E01F
:100320000E9477056AEB73E082EA95E00E94770508
:1003300067EF73E082EA95E00E94770541E0BE0135
:100340006F587F4F8BE895E00E94230B81112BC0E3
:1003500080910001811106C060E177E280E090E0C9
:100360000E94B00408E710E06DE282EA95E00E9486
:100370005C050150110901151105B1F782EA95E0FC
:100380000E94630561E374E082EA95E00E947705CC
:100390008BE895E00E94EE0A6AEF70E080E090E062
:1003A0000E94B00451C26BE374E082EA95E00E94BF
:1003B0005A058E010F581F4F680188E0C80ED11CE6
:1003C000E091A205F091A3050190F081E02D60E29B
:1003D00082EA95E00995F80161918F0140E150E0D2
:1003E00082EA95E00E9441060C151D0549F767E079
:1003F000CE018F589F4F0E94C00BE9969FADE997A1
:10040000891719F062E474E02EC0E2968FADE2978E
:10041000823281F0883259F08031A1F464E574E0D1
:1004200082EA95E00E947705FF24F39421C065E6F7
:1004300074E002C066E774E082EA95E00E94770506
:10044000F12C16C066E874E082EA95E00E945A0535
:1004500040E150E0E2966FADE29782EA95E00E94BB
:1004600041066AE974E082EA95E00E947705ECC1F2
:100470008BE895E00E948C09BE016F587F4F8BE896
:1004800095E00E94C60A40E06EEB8BE895E00E9482
:10049000290A05E610E00C0F1D1F075F1F4FCE0154
:1004A0008B599F4F6C018BE895E00E94A90AF601D9
:1004B00081936F01E017F107B1F7AA968FADAA9764
:1004C0008F798062AA968FAFAA978BE895E00E94F9
:1004D0008C09BE016F587F4F8BE895E00E94C60AD9
:1004E00040E06EE48BE895E00E94290A20E043E0BA
:1004F00050E065E670E06C0F7D1F6E5F7F4F8BE80C
:1005000095E00E946B0A8BE895E00E948C09BE0181
:100510006F587F4F8BE895E00E94C60A0E948104C5
:1005200060938705709388058093890590938A0569
:1005300040E064E48BE895E00E94290A58EEC52E5D
:1005400053E0D52E8BE895E00E94FE0981110CC086
:1005500061E070E080E090E00E94B00491E0C91A90
:10056000D108C114D10471F70E94810480908705DD
:1005700090908805A0908905B0908A05861A970A00
:10058000A80AB90A8092870590928805A0928905E9
:10059000B0928A058BE895E00E948C09BE016F58E5
:1005A0007F4F8BE895E00E94C60A40E06EEB8BE837
:1005B00095E00E94290ACE018B599F4F6C018BE870
:1005C00095E00E94A90AF60181936F01E017F107F7
:1005D000B1F76BEB74E082EA95E00E945A05A896A9
:1005E0006FADA89782EA95E00E945C05A9966FAD71
:1005F000A99782EA95E00E945C0568EC74E082EAC3
:1006000095E00E945A0540918705509188056091B8
:10061000890570918A0570956095509541955F4F59
:100620006F4F7F4F2AE030E082EA95E00E94E205BA
:1006300067ED74E082EA95E00E945A05A7968FADB7
:10064000A79790E0982F8827A6962FADA697822B84
:10065000FF20B1F08C0133E0000F111F3A95E1F754
:10066000AD968FADAD978031D9F4AC962FADAC97E8
:100670008CE090E0821B9109007F080F191F10C0C9
:10068000AA96EFADAA97E076F0E024E0F695E7951C
:100690002A95E1F7EE59FA4F0081118108231923B9
:1006A0006AED74E082EA95E00E945A05B801882755
:1006B00077FD8095982F0E940C0D20E030E040E8F7
:1006C0005DE30E94C00D26E636E646EE5FE30E943B
:1006D000C00D20E030E040E052E40E94090CAB0184
:1006E000BC0122E030E082EA95E00E9433076BEE25
:1006F00074E082EA95E00E94770580918605811179
:100700009DC082EA95E00E94A5071816190654F4C8
:1007100024E630E0AE014F5F5F4F6AE082EA95E089
:100720000E9463076DEE74E082EA95E00E945A052C
:1007300082EA95E00E94A5070297D4F324E630E010
:10074000AE014F5F5F4F6AE082EA95E00E94630767
:100750008981893561F08E3409F470C0813509F4DE
:100760006AC0813709F467C0893709F067C067E25A
:1007700075E082EA95E00E945A0582EA95E00E94BF
:10078000A5070397D4F324E630E0AE014F5F5F4F37
:100790006AE082EA95E00E9463078981A8968FAF9C
:1007A000A8978A81A9968FAFA99762E575E082EA3A
:1007B00095E00E945A05698182EA95E00E945C05F5
:1007C0006A8182EA95E00E945C0566EC74E082EA48
:1007D00095E00E9477058BE895E00E948C09BE01A8
:1007E0006F587F4F8BE895E00E94C60A40E06EE4A8
:1007F0008BE895E00E94290A65E670E06C0F7D1F8A
:100800006E5F7F4F20E043E050E08BE895E00E9470
:100810006B0A8BE895E00E948C09BE016F587F4FF0
:100820008BE895E00E94C60A40E068E48BE895E01A
:100830000E94290A03C081E08093860582EA95E040
:100840000E94630510920001C858DF4F0FB6F8945C
:10085000DEBF0FBECDBFDF91CF911F910F91FF90F3
:10086000DF90CF90BF90AF909F908F9008951F9290
:100870000F920FB60F9211242F933F938F939F9354
:10088000AF93BF9380919A0590919B05A0919C0591
:10089000B0919D053091990523E0230F2D3720F469
:1008A0000196A11DB11D05C026E8230F0296A11DCA
:1008B000B11D2093990580939A0590939B05A09371
:1008C0009C05B0939D0580919E0590919F05A091F8
:1008D000A005B091A1050196A11DB11D80939E05B3
:1008E00090939F05A093A005B093A105BF91AF91F0
:1008F0009F918F913F912F910F900FBE0F901F905E
:1009000018952FB7F89460919A0570919B05809186
:100910009C0590919D052FBF08953FB7F894809155
:100920009E0590919F05A091A005B091A10526B5C7
:10093000A89B05C02F3F19F00196A11DB11D3FBF17
:100940006627782F892F9A2F620F711D811D911DA7
:1009500042E0660F771F881F991F4A95D1F70895C7
:10096000CF92DF92EF92FF92CF93DF936B017C01E6
:100970000E948D04EB01C114D104E104F10479F06B
:100980000E948D046C1B7D0B683E7340A0F381E0D8
:10099000C81AD108E108F108C851DC4FECCFDF914B
:1009A000CF91FF90EF90DF90CF900895019700973F
:1009B00039F0880F991F880F991F02970197F1F757
:1009C0000895789484B5826084BD84B5816084BDC7
:1009D00085B5826085BD85B5816085BDEEE6F0E0B8
:1009E000808181608083E1E8F0E010828081826014
:1009F0008083808181608083E0E8F0E08081816095
:100A00008083E1EBF0E0808184608083E0EBF0E0C4
:100A1000808181608083EAE7F0E080818460808368
:100A20008081826080838081816080838081806812
:100A300080831092C1000895CF92DF92EF92FF92CF
:100A40000F931F93CF93DF936C017A01EB01E60EB6
:100A5000F71E00E010E0CE15DF0561F06991D601C8
:100A6000ED91FC910190F081E02DC6010995080FF0
:100A7000191FF1CFC801DF91CF911F910F91FF9006
:100A8000EF90DF90CF9008956115710581F0DB0143
:100A90000D900020E9F7AD0141505109461B570B5D
:100AA000DC01ED91FC910280F381E02D099480E05E
:100AB00090E008950C944405DC01ED91FC910190C7
:100AC000F081E02D09940F931F93CF93DF93EC01F6
:100AD0006DE00E945C058C016AE0CE010E945C051D
:100AE000800F911FDF91CF911F910F9108950F9368
:100AF0001F93CF93DF93EC010E9444058C01CE013C
:100B00000E946305800F911FDF91CF911F910F917C
:100B100008958F929F92AF92BF92CF92DF92EF9201
:100B2000FF920F931F93CF93DF93CDB7DEB7A197BB
:100B30000FB6F894DEBF0FBECDBF7C01C42EE52FEB
:100B4000CB01D22E19A221E02D1510F02AE0D22ED1
:100B50008E010F5D1F4F8D2C912CA12CB12C6C2D73
:100B60007E2FA50194010E94270E8C2DD29E801904
:100B70001124015011098A3014F4805D01C0895C90
:100B8000F8018083211531054105510521F0C22E60
:100B9000E32FCA01E4CFB801C7010E944405A19622
:100BA0000FB6F894DEBF0FBECDBFDF91CF911F917E
:100BB0000F91FF90EF90DF90CF90BF90AF909F90FC
:100BC0008F900895CF92DF92EF92FF920F931F9331
:100BD000CF93DF93EC016A017B012115310579F494
:100BE000E881F9810190F081E02D642FDF91CF91B0
:100BF0001F910F91FF90EF90DF90CF9009942A30D2
:100C00003105E9F477FF1AC06DE20E945C058C01A2
:100C100044275527BA014C195D096E097F092AE05E
:100C2000CE010E948905800F911FDF91CF911F9106
:100C30000F91FF90EF90DF90CF9008952AE0B701D9
:100C4000A601CE01DF91CF911F910F91FF90EF9000
:100C5000DF90CF900C9489059A01AB01662757FD70
:100C60006095762F0C94E2052115310541F4DC01E5
:100C7000ED91FC910190F081E02D642F09940C948A
:100C800089059A01462F50E060E070E00C9434062C
:100C90004F925F926F927F928F929F92AF92BF928C
:100CA000CF92DF92EF92FF920F931F93CF93DF9338
:100CB000EC016A017B01B22E9A01AB01C701B601BA
:100CC0000E94230E882319F06AE675E027C02601EA
:100CD0003701E89477F82FEF3FEF4FE75FE7C30165
:100CE000B2010E94230E81110DC02FEF3FEF4FE79D
:100CF0005FE7C301B2010E946D0C18161CF46EE68A
:100D000075E00CC02FEF3FEF4FE75FE4C701B6017E
:100D10000E94BC0D1816ACF462E775E0CE01DF91BD
:100D2000CF911F910F91FF90EF90DF90CF90BF90E8
:100D3000AF909F908F907F906F905F904F900C94AA
:100D400044052FEF3FEF4FE75FECC701B6010E946C
:100D50006D0C87FDE1CF20E030E0A901C701B601AD
:100D60000E946D0C87FF0AC06DE2CE010E945C05F7
:100D70008C01F7FAF094F7F8F09402C000E010E06C
:100D8000A12C60E070E080E09FE3AB1441F020E034
:100D900030E040E251E40E94710CA394F6CF9B0135
:100DA000AC01C701B6010E94090C6B017C010E94D5
:100DB000DE0C2B013C010E940A0D9B01AC01C70116
:100DC000B6010E94080C6B017C012AE0B301A2016C
:100DD000CE010E948905080F191FBB2039F069EB6D
:100DE00074E0CE010E944405080F191F7B2C772068
:100DF00041F120E030E040E251E4C701B6010E9439
:100E0000C00D6B017C010E94D90C4B01AA2497FCF8
:100E1000A094BA2C2AE030E0B501A401CE010E94D2
:100E2000E205080F191FC501B4010E940C0D9B01BA
:100E3000AC01C701B6010E94080C6B017C017A94D9
:100E4000D6CFC801DF91CF911F910F91FF90EF9006
:100E5000DF90CF90BF90AF909F908F907F906F90DA
:100E60005F904F9008950C9448060F931F93CF9373
:100E7000DF93EC010E948104688779878A879B87CA
:100E8000E881F9810680F781E02DCE01099597FF71
:100E900015C00E948104088519852A853B85601B41
:100EA000710B820B930B0C811D812E813F8160178A
:100EB00071078207930720F38FEF9FEFDF91CF91A8
:100EC0001F910F910895AF92BF92CF92DF92EF9250
:100ED000FF920F931F93CF93DF936C01790121153C
:100EE0003105B9F08A01C0E0D0E0A62EBB24A7FCF2
:100EF000B094C6010E94350797FD0EC08A159B0568
:100F000059F0F80181938F012196CE15DF0589F7FD
:100F100003C080E090E001C0CE01DF91CF911F912E
:100F20000F91FF90EF90DF90CF90BF90AF9008951A
:100F30000E94E1040E940301C1E7D8E00E9474010D
:100F40002097E1F30E947108F9CFFC0124853585D3
:100F5000F901E05CFF4F80819181329620813181DF
:100F6000821B930B8F7399270895FC0184859585C7
:100F7000FC01E05CFF4F408151813296208131813C
:100F80004217530741F00190F081E02DE80FF91F5F
:100F9000808190E008958FEF9FEF0895FC01848594
:100FA0009585FC01E05CFF4F4081518132962081A4
:100FB00031814217530779F0A081B181A80FB91F81
:100FC0008C91208131812F5F3F4F2F7333273183E5
:100FD000208390E008958FEF9FEF0895FC0181A199
:100FE000882329F0A489B5898C9186FFFBCF11A2B3
:100FF0000895CF93DF93FC0126853785D901A05C46
:10100000BF4F8D919C91119701968F739927E9019C
:10101000CE5BDF4F4881598184179507D9F30D9036
:10102000BC91A02DA20FB31F6C93A685B785A05CC1
:10103000BF4F11969C938E93A689B7892C9181E01E
:1010400090E0078C02C0880F991F0A94E2F7282BC2
:101050002C9381E081A30488F589E02D8081806450
:10106000808381E090E0DF91CF91089508951F92F1
:101070000F920FB60F9211242F933F934F938F939C
:101080009F93EF93FF938091C00082FD1CC040911D
:10109000C600809148069091490601968F73992762
:1010A00020914A0630914B068217930771F0E09128
:1010B0004806F0914906E85FF94F4083909349064E
:1010C0008093480602C08091C600FF91EF919F91E6
:1010D0008F914F913F912F910F900FBE0F901F90C6
:1010E000189582EA95E00E94A507892B11F00C94CF
:1010F000360808951F920F920FB60F9211242F9366
:101100003F938F939F93EF93FF9320910406309129
:10111000050680910606909107062817390731F4D5
:101120008091C1008F7D8093C10014C0E0910606BC
:10113000F0910706EC53FA4F2081809106069091BA
:10114000070601968F7399279093070680930606EA
:101150002093C600FF91EF919F918F913F912F9126
:101160000F900FBE0F901F901895CF92DF92EF92C5
:10117000FF92CF93DF93EC016A017B01411581EE71
:10118000580761057105F9F0EC89FD8981E090E06F
:1011900008A002C0880F991F0A94E2F7808360E0DC
:1011A00079E08DE390E0A70196010E94270E21507F
:1011B00031094109510956954795379527952115CC
:1011C00080E1380798F0EC89FD89108260E874E8C6
:1011D0008EE190E0A70196010E94270E215031096F
:1011E000410951095695479537952795E889F98919
:1011F0003083EA89FB89208319A2EE89FF89408127
:1012000081E090E09C010C8C02C0220F331F0A94F5
:10121000E2F7422B4083EE89FF8940819C010D8CCF
:1012200002C0220F331F0A94E2F7422B4083EE895B
:10123000FF8940819C010E8C02C0220F331F0A944B
:10124000E2F7422B4083EE89FF8920810F8C02C098
:10125000880F991F0A94E2F7809582238083DF919B
:10126000CF91FF90EF90DF90CF9008951092A50559
:101270001092A40588EE93E0A0E0B0E08093A6056C
:101280009093A705A093A805B093A9058AE795E0D8
:101290009093A3058093A20588E096E09093AF0514
:1012A0008093AE0584EC95E09093B1058093B005F2
:1012B00085EC90E09093B3058093B20584EC90E0C8
:1012C0009093B5058093B40580EC90E09093B705BA
:1012D0008093B60581EC90E09093B9058093B805B2
:1012E00082EC90E09093BB058093BA0586EC90E089
:1012F0009093BD058093BC0584E08093BE0583E098
:101300008093BF0587E08093C00585E08093C10589
:1013100081E08093C2050895FF920F931F93CF93AE
:10132000DF93FC010081C181D281F8948981F02E84
:10133000F0948F21898378941DE7115029F182E080
:1013400090E00E94D60488818023B9F3F8948A81C2
:101350008F218A838981802B8983789480EE91E024
:101360000E94D604F89489818F21898386E490E0D5
:101370000E94D6048881802311E009F010E078945F
:101380008AE991E00E94D604812FDF91CF911F91CD
:101390000F91FF9008951F93CF93DF93FC0110816D
:1013A000C181D281912F909560FF12C0F8948A81FB
:1013B00089238A838981812B89838AE090E00E9436
:1013C000D6048A81812B8A83789487E390E011C0C8
:1013D000F8948A8189238A838981812B898381E496
:1013E00090E00E94D6048A81812B8A83789485E0DC
:1013F00090E0DF91CF911F910C94D6040F931F932F
:10140000CF93DF93FC011081C181D281F89489814F
:10141000812B89838A81012F009580238A8383E031
:1014200090E00E94D6048981802389838AE090E03D
:101430000E94D604C881789485E390E00E94D60487
:101440001C2381E009F480E0DF91CF911F910F917F
:101450000895CF92DF92EF92FF920F931F93CF9355
:10146000DF931F92CDB7DEB76C01E62E08E010E0E7
:10147000FF24F39461E09F2D9E2109F460E0C601F2
:1014800049830E94CB09FF0C0150110949810115C4
:10149000110581F7411115C0F894D6011196ED910F
:1014A000FC91129791818C9180958923818311966B
:1014B000ED91FC91129792818C9180958923828382
:1014C00078940F90DF91CF911F910F91FF90EF9043
:1014D000DF90CF900895CF92DF92EF92FF920F931B
:1014E0001F93CF93DF931F92CDB7DEB78C017A01A4
:1014F0006B01E60EF71ECE14DF0451F0D6016D919C
:101500006D0140E0C80129830E94290A2981F3CF97
:10151000211115C0F894D8011196ED91FC91129704
:1015200091818C918095892381831196ED91FC9115
:10153000129792818C9180958923828378940F9061
:10154000DF91CF911F910F91FF90EF90DF90CF909F
:101550000895EF92FF920F931F93CF93DF938C0127
:10156000C8E0D0E0F12CEE24E394C8010E94FE090B
:101570008111FE28EE0C21972097B9F78F2DDF916E
:10158000CF911F910F91FF90EF900895CF92DF922E
:10159000FF920F931F93CF93DF931F92CDB7DEB7C8
:1015A0008C01F62E40E065E579830E94290ACF2C54
:1015B0007981D72E88E0F82EF60161916F0140E025
:1015C000C8010E94290AFA94B9F70F90DF91CF91D0
:1015D0001F910F91FF90DF90CF900895FC0113862B
:1015E0001586148627E030E0DF01A20FB31F1396A3
:1015F0001C922115310519F021503109F5CF0895BC
:101600001F93CF93DF93EC01162F60E0812F0E9490
:10161000CC0B612F70E0FB01E859FE4FE491E883A9
:10162000FB01E458FE4FE491F0E0EE0FFF1FE0579E
:10163000FE4F859194919A838983CE01DF91CF915A
:101640001F910C94EE0AAF92BF92CF92DF92EF926D
:10165000FF920F931F93CF93DF931F92CDB7DEB707
:101660005C01D62EE72EFC018585811164C0C50181
:1016700049830E948C094981811105C0F5011386B7
:101680001586148671C0442319F040E060EF02C053
:1016900040E06CEEC5010E94290A01E0F12CC12C4A
:1016A00011E0C5010E94FE09682FC50169830E94EF
:1016B000FE096981613019F48130B9F433C02F2DEE
:1016C00030E068131BC0F5018385181730F4E20F72
:1016D000F31F8381802349F402C0181731F060E0C2
:1016E000193058F4F501148708C0F501EF0DF11D0C
:1016F0008381802B838361E009C0C12EF501E20F55
:10170000F31F8381902F909589238383C5010E94C5
:10171000CB091F5F000F11F4F39401E0F7E0FF1510
:1017200008F0BFCF113438F0F501C386C11009C0ED
:1017300081E0858706C0F50113861586148680E052
:1017400013C0F50183818823B1F3ED2DFE2D80E0D8
:1017500090E0D501A80FB91F13962C912193019603
:1017600088309105B1F781E00F90DF91CF911F9103
:101770000F91FF90EF90DF90CF90BF90AF900895C2
:10178000DC0180E0615038F0ED91E827F0E0E859A5
:10179000FF4F8491F7CF0895CF93DF9390E0FC0142
:1017A000E859FE4F2491FC01E458FE4F84918823B0
:1017B00049F190E0880F991FFC01EC55FE4FA5916F
:1017C000B49186569E4FFC01C591D4919FB761118B
:1017D00008C0F8948C91209582238C938881822371
:1017E0000AC0623051F4F8948C91322F30958323E3
:1017F0008C938881822B888304C0F8948C91822BEF
:101800008C939FBFDF91CF910895F8940C944F0E65
:101810005058BB27AA270ED075C166D130F06BD1C6
:1018200020F031F49F3F11F41EF45BC10EF4E095FB
:10183000E7FB51C1E92F77D180F3BA17620773072D
:101840008407950718F071F49EF58FC10EF4E095AA
:101850000B2EBA2FA02D0B01B90190010C01CA016A
:10186000A0011124FF27591B99F0593F50F4503E15
:1018700068F11A16F040A22F232F342F4427585F07
:10188000F3CF469537952795A795F0405395C9F71F
:101890007EF41F16BA0B620B730B840BBAF09150D7
:1018A000A1F0FF0FBB1F661F771F881FC2F70EC076
:1018B000BA0F621F731F841F48F487957795679549
:1018C000B795F7959E3F08F0B3CF9395880F08F032
:1018D0009927EE0F979587950895D9D008F481E060
:1018E00008950CD00FC107D140F0FED030F021F4A4
:1018F0005F3F19F0F0C0511139C1F3C014D198F312
:101900009923C9F35523B1F3951B550BBB27AA2780
:1019100062177307840738F09F5F5F4F220F331FF2
:10192000441FAA1FA9F333D00E2E3AF0E0E830D0BE
:1019300091505040E695001CCAF729D0FE2F27D0C1
:10194000660F771F881FBB1F261737074807AB078F
:10195000B0E809F0BB0B802DBF01FF2793585F4F04
:101960002AF09E3F510568F0B6C000C15F3FECF31E
:10197000983EDCF3869577956795B795F7959F5FC9
:10198000C9F7880F911D9695879597F90895E1E01D
:10199000660F771F881FBB1F621773078407BA077C
:1019A00020F0621B730B840BBA0BEE1F88F7E095D7
:1019B000089504D06894B111D9C00895BCD088F0BE
:1019C0009F5790F0B92F9927B751A0F0D1F0660F2B
:1019D000771F881F991F1AF0BA95C9F712C0B13046
:1019E00081F0C3D0B1E00895C0C0672F782F882759
:1019F000B85F39F0B93FCCF3869577956795B39585
:101A0000D9F73EF490958095709561957F4F8F4FF3
:101A10009F4F0895E89409C097FB3EF490958095F8
:101A2000709561957F4F8F4F9F4F9923A9F0F92FA4
:101A300096E9BB279395F695879577956795B79522
:101A4000F111F8CFFAF4BB0F11F460FF1BC06F5F08
:101A50007F4F8F4F9F4F16C0882311F096E911C01A
:101A6000772321F09EE8872F762F05C0662371F03B
:101A700096E8862F70E060E02AF09A95660F771F4F
:101A8000881FDAF7880F9695879597F90895990F2B
:101A90000008550FAA0BE0E8FEEF16161706E80738
:101AA000F907C0F012161306E407F50798F0621B59
:101AB000730B840B950B39F40A2661F0232B242B2E
:101AC000252B21F408950A2609F4A140A6958FEF4D
:101AD000811D811D089597F99F6780E870E060E09F
:101AE00008959FEF80EC089500240A9416161706B7
:101AF00018060906089500240A94121613061406FF
:101B000005060895092E0394000C11F4882352F061
:101B1000BB0F40F4BF2B11F460FF04C06F5F7F4F19
:101B20008F4F9F4F089557FD9058440F551F59F000
:101B30005F3F71F04795880F97FB991F61F09F3FBA
:101B400079F087950895121613061406551FF2CFE3
:101B50004695F1DF08C0161617061806991FF1CF33
:101B600086957105610508940895E894BB2766275A
:101B70007727CB0197F908958ADF08F48FEF08954E
:101B80000BD0C0CFB1DF28F0B6DF18F0952309F0F5
:101B9000A2CFA7CF1124EACFC6DFA0F3959FD1F340
:101BA000950F50E0551F629FF001729FBB27F00D0B
:101BB000B11D639FAA27F00DB11DAA1F649F662760
:101BC000B00DA11D661F829F2227B00DA11D621FAF
:101BD000739FB00DA11D621F839FA00D611D221F69
:101BE000749F3327A00D611D231F849F600D211D4D
:101BF000822F762F6A2F11249F5750408AF0E1F0F0
:101C000088234AF0EE0FFF1FBB1F661F771F881F38
:101C100091505040A9F79E3F510570F05CCFA6CF80
:101C20005F3FECF3983EDCF3869577956795B79523
:101C3000F795E7959F5FC1F7FE2B880F911D96954D
:101C4000879597F9089523DF880B990B0895A1E2F2
:101C50001A2EAA1BBB1BFD010DC0AA1FBB1FEE1F26
:101C6000FF1FA217B307E407F50720F0A21BB30B71
:101C7000E40BF50B661F771F881F991F1A9469F7ED
:101C800060957095809590959B01AC01BD01CF0149
:101C90000895EE0FFF1F0590F491E02D0994F8943C
:021CA000FFCF74
:101CA200010A0A54657374696E672070726F6772F5
:101CB200616D20746F206C6162656C204453313811
:101CC2004232302074656D70657261747572652080
:101CD20073656E736F727300436F6E6E656374200B
:101CE20073656E736F727320746F204172647569CD
:101CF2006E6F207769746820332D7769726520636F
:101D02006F6E6E656374696F6E2E2020004E4F54A5
:101D120020696E20706172617369746963206D6FEE
:101D2200646500436F6E6E65637420646174612044
:101D32002879656C6C6F772F7768697465292074D0
:101D42006F2070696E2000207769746820344B37E9
:101D5200204F686D2070756C6C757020746F203325
:101D62005633205643430050726F6772616D206391
:101D720079636C6573207468726F75676820616C33
:101D82006C20445331384232302773206F6E2074F6
:101D92006865204F6E655769726520627573000928
:101DA200616E642072656164732074686520746575
:101DB2006D70206F66662065616368206F6E6520B6
:101DC20061742031302D626974207265736F6C7595
:101DD20074696F6E0009616E64206F666665727366
:101DE20020746865206F70706F7274756E69747993
:101DF20020746F206C6162656C2065616368206F7E
:101E02006E652E00486F6C64206F6E652073656E80
:101E1200736F7220616E6420776174636820666FED
:101E220072207468652074656D7065726174757274
:101E32006520746F20726973652C207468656E006A
:101E4200096C6162656C20746861742073656E73DD
:101E52006F7220616E64206D61726B207468652000
:101E6200706879736963616C2070726F626520615A
:101E720063636F7264696E676C792E000954616BDB
:101E82006520656163682073656E736F7220696E89
:101E9200207475726E20756E74696C20796F752767
:101EA2007665206C6162656C656420746865207378
:101EB20065742E00424520535552452054484154E2
:101EC2002054484520494E50555420544F205448E0
:101ED20049532050524F4752414D204953205345B8
:101EE2005420544F2053454E44203C4E45574C49B4
:101EF2004E453E00097768656E20796F75277265D9
:101F0200207265706C79696E6720746F20746865E1
:101F120020726573706F6E73652070726F6D70746E
:101F2200732E0A004669727374207765276C6C20E1
:101F32007363616E20746865204F6E6557697265C0
:101F42002062757320746F206964656E74696679A6
:101F520020646576696365732E005468656E207728
:101F620065276C6C207265706F727420616761699D
:101F72006E206F6E206561636820646576696365B3
:101F820020616E64206769766520796F7520612013
:101F92006368616E63650009746F206C6162656CD1
:101FA2002065616368206F6E652E20204C6162653A
:101FB2006C7320617265206C696D6974656420744C
:101FC2006F2054574F204348415241435445525386
:101FD200004E455854205343414E000A524F4D2063
:101FE2003D00435243206973206E6F742076616C0A
:101FF20069642100202043686970203D20445331E8
:102002003853323000202043686970203D20445309
:10201200313842323000202043686970203D20442C
:1020220053313832320044657669636520776974CA
:102032006820636F646520307800206973206E6FBA
:1020420074206120445331387832302066616D69E2
:102052006C79206465766963652E0053656E736FD3
:10206200722049443A2027002709436F6E76207474
:10207200696D65203D20006D7300202054656D70F0
:1020820065726174757265203D20004600446F20C0
:10209200796F752077616E7420746F206C61626550
:1020A2006C20746869732073656E736F723F2028A9
:1020B20079206F72206E2C206F72207120746F2035
:1020C20071756974292000547970652074776F20C6
:1020D2006368617261637465727320746F206C61EE
:1020E20062656C20746869732073656E736F723AEF
:1020F20020006C6162656C696E6720776974682084
:102102002700F8FFFCFFFEFFFFFF6E616E00696EA5
:1021120066006F76660000000000F9071C05A5073F
:06212200CE07B507EE0731
:00000001FF
