:100000000C94D9000C9401010C9401010C94010191
:100010000C9401010C9401010C9401010C94010158
:100020000C9401010C9401010C9401010C94010148
:100030000C9401010C9401010C9401010C94010138
:100040000C9434030C9401010C94D1060C94140705
:100050000C9401010C9401010C9401010C94010118
:100060000C9401010C940101005EBCE2613FDD8350
:10007000C29C7E20A3FD1F419DC3217FFCA2401E88
:100080005F01E3BD3E6082DC237D9FC1421CFEA078
:10009000E1BF5D0380DE3C62BEE0025CDF81633D68
:1000A0007C22C09E1D43A1FF4618FAA427799BC558
:1000B00084DA3866E5BB5907DB856739BAE4065848
:1000C0001947A5FB7826C49A653BD987045AB8E638
:1000D000A7F91B45C6987A24F8A6441A99C7257B28
:1000E0003A6486D85B05E7B98CD2306EEDB3510F18
:1000F0004E10F2AC2F7193CD114FADF3702ECC9208
:10010000D38D6F31B2EC0E50AFF1134DCE90722CF7
:100110006D33D18F0C52B0EE326C8ED0530DEFB1E7
:10012000F0AE4C1291CF2D73CA947628ABF51749D7
:100130000856B4EA6937D58B5709EBB536688AD4C7
:1001400095CB2977F4AA4816E9B7550B88D6346AB7
:100150002B7597C94A14F6A8742AC896154BA9F7A7
:10016000B6E80A54D7896B35010204081020408094
:1001700001020408102001020408102004040404F1
:100180000404040402020202020203030303030341
:1001900000000000230026002900000000002500C8
:1001A00028002B0000000000240027002A002F0355
:1001B000D50711241FBECFEFD8E0DEBFCDBF13E0BF
:1001C000A0E0B1E0ECEBFCE102C005900D92A03B99
:1001D000B107D9F724E0A0EBB3E001C01D92A93725
:1001E000B207E1F711E0C2EBD1E004C02297FE01B3
:1001F0000E94580ECE3AD107C9F70E9432060C94DD
:10020000120C0C94000026E040E855E260E070E03B
:100210008FEC93E00E944F0787EB93E00E94370832
:1002200081110CC061E071E08FEC93E00E947404D6
:1002300060E67AEE80E090E00C94AD0387EB93E00B
:100240000E94990987EB93E00E94FB0A68E271E043
:100250008FEC93E00E94740464E671E08FEC93E00D
:100260000E94570469E971E08FEC93E00E947404E6
:100270006FEA71E08FEC93E00E9457044AE050E08F
:1002800065E070E08FEC93E00E94290563ED71E07A
:100290008FEC93E00E94740463EF71E08FEC93E0C5
:1002A0000E9474046BE272E08FEC93E00E9474048D
:1002B00068E672E08FEC93E00E9474048FEC93E0A8
:1002C0000C946004A82FA295AF70B0E0A359BC4F66
:1002D0009C919093B0038F70E82FF0E0E359FC4FAE
:1002E00080818093B1031092B20380EB93E0089574
:1002F0004F925F926F927F928F929F92AF92BF9236
:10030000DF92EF92FF920F931F93CF93DF93CDB7BE
:10031000DEB764970FB6F894DEBF0FBECDBF41E0E5
:10032000BE01635F7F4F87EB93E00E94300B81112A
:1003300029C080910001811106C060E177E280E070
:1003400090E00E94AD031092000187EB93E00E94C1
:10035000FB0A6AEF70E080E090E00E94AD0300E5E8
:1003600010E06DE28FEC93E00E94590401501109F6
:1003700001151105B1F78FEC93E00E9460046FE95D
:1003800072E074C069EA72E08FEC93E00E94570457
:100390008E01035F1F4F7E0125E1E20EF11CE0910B
:1003A000CF03F091D0030190F081E02D60E28FEC5B
:1003B00093E00995F80181918F010E946201BC01CF
:1003C0008FEC93E00E9457040E151F0541F767E07C
:1003D000CE010D960E94CD0B9C898917E9F08FEC18
:1003E00093E00E9460046FEA72E08FEC93E00E9459
:1003F000570467E0CE010D960E94CD0B0E9462016A
:10040000BC018FEC93E00E94740460E67AEE80E019
:1004100090E00E94AD030DC18D85823279F0883263
:1004200051F0803199F464EC72E08FEC93E00E941B
:10043000740401E020C065ED72E002C066EE72E077
:100440008FEC93E00E94740400E015C066EF72E048
:100450008FEC93E00E9457048D850E946201BC01DD
:100460008FEC93E00E9457046AE073E08FEC93E016
:100470000E947404DEC0D12C10E07E01FAE0EF0E81
:10048000F11C87EB93E00E949909BE01635F7F4FE7
:1004900087EB93E00E94D30A4D2DBE01635F7F4F2F
:1004A00087EB93E00E94AB0887EB93E00E949909E9
:1004B0000E947E039B01AC0188279927DC01821BE7
:1004C000930BA40BB50B8093B3039093B403A09349
:1004D000B503B093B6039E012F5F3F4FAE01435F5C
:1004E0005F4FB80187EB93E00E940B094B015C0161
:1004F0000E947E034090B3035090B4036090B50314
:100500007090B603460E571E681E791E4092B303C4
:100510005092B4036092B5037092B6036BE273E03D
:100520008FEC93E00E9457046B818FEC93E00E9464
:1005300059046C818FEC93E00E94590468E373E0E6
:100540008FEC93E00E945704AE014F5F5F4F3A017A
:10055000F30181913F010E946201BC018FEC93E0A5
:100560000E94570467E971E08FEC93E00E94570402
:100570006E147F0469F762E473E08FEC93E00E94ED
:10058000570468E0CE0101960E94CD0B0E946201E3
:10059000BC018FEC93E00E94570468E473E08FEC99
:1005A00093E00E9457044091B3035091B4036091CB
:1005B000B5037091B6032AE030E08FEC93E00E941F
:1005C000DF046AE573E08FEC93E00E94570422E0B9
:1005D00030E0B501A4018FEC93E00E94300663EA9D
:1005E00073E08FEC93E00E94570426E636E646EE71
:1005F0005FE3C501B4010E94CD0D20E030E040E092
:1006000052E40E94160CAB01BC0121E030E08FECFB
:1006100093E00E9430066BE673E08FEC93E00E945B
:100620007404D394F4E0DF122CCF8FEC93E00E949B
:10063000600464960FB6F894DEBF0FBECDBFDF91A5
:10064000CF911F910F91FF90EF90DF90BF90AF90EF
:100650009F908F907F906F905F904F90089565E08E
:1006600087EB93E00C942B081F920F920FB60F921A
:1006700011242F933F938F939F93AF93BF938091B8
:10068000C7039091C803A091C903B091CA033091E8
:10069000C60323E0230F2D3720F40196A11DB11DC1
:1006A00005C026E8230F0296A11DB11D2093C603A5
:1006B0008093C7039093C803A093C903B093CA0360
:1006C0008091CB039091CC03A091CD03B091CE0348
:1006D0000196A11DB11D8093CB039093CC03A093F1
:1006E000CD03B093CE03BF91AF919F918F913F9176
:1006F0002F910F900FBE0F901F9018952FB7F89461
:100700006091C7037091C8038091C9039091CA0397
:100710002FBF08953FB7F8948091CB039091CC03FD
:10072000A091CD03B091CE0326B5A89B05C02F3F65
:1007300019F00196A11DB11D3FBF6627782F892FA3
:100740009A2F620F711D811D911D42E0660F771F68
:10075000881F991F4A95D1F70895CF92DF92EF92A3
:10076000FF92CF93DF936B017C010E948A03EB0120
:10077000C114D104E104F10479F00E948A036C1BD6
:100780007D0B683E7340A0F381E0C81AD108E108F0
:10079000F108C851DC4FECCFDF91CF91FF90EF9083
:1007A000DF90CF9008950197009739F0880F991F37
:1007B000880F991F02970197F1F70895789484B5EF
:1007C000826084BD84B5816084BD85B5826085BD4D
:1007D00085B5816085BDEEE6F0E080818160808333
:1007E000E1E8F0E010828081826080838081816016
:1007F0008083E0E8F0E0808181608083E1EBF0E0DD
:10080000808184608083E0EBF0E080818160808380
:10081000EAE7F0E080818460808380818260808369
:100820008081816080838081806880831092C10094
:100830000895CF92DF92EF92FF920F931F93CF9381
:10084000DF936C017A01EB01E60EF71E00E010E089
:10085000CE15DF0561F06991D601ED91FC91019013
:10086000F081E02DC6010995080F191FF1CFC801CD
:10087000DF91CF911F910F91FF90EF90DF90CF907C
:1008800008956115710581F0DB010D900020E9F7F5
:10089000AD0141505109461B570BDC01ED91FC9114
:1008A0000280F381E02D099480E090E008950C949B
:1008B0004104DC01ED91FC910190F081E02D09945F
:1008C0000F931F93CF93DF93EC016DE00E945904C7
:1008D0008C016AE0CE010E945904800F911FDF91C4
:1008E000CF911F910F9108950F931F93CF93DF9393
:1008F000EC010E9441048C01CE010E946004800F33
:10090000911FDF91CF911F910F9108958F929F9228
:10091000AF92BF92CF92DF92EF92FF920F931F930D
:10092000CF93DF93CDB7DEB7A1970FB6F894DEBFB4
:100930000FBECDBF7C01C42EE52FCB01D22E19A254
:1009400021E02D1510F02AE0D22E8E010F5D1F4FF1
:100950008D2C912CA12CB12C6C2D7E2FA5019401F6
:100960000E94340E8C2DD29E801911240150110941
:100970008A3014F4805D01C0895CF8018083211500
:1009800031054105510521F0C22EE32FCA01E4CF04
:10099000B801C7010E944104A1960FB6F894DEBFCA
:1009A0000FBECDBFDF91CF911F910F91FF90EF90C0
:1009B000DF90CF90BF90AF909F908F900895CF928F
:1009C000DF92EF92FF920F931F93CF93DF93EC018F
:1009D0006A017B012115310579F4E881F9810190E3
:1009E000F081E02D642FDF91CF911F910F91FF9047
:1009F000EF90DF90CF9009942A303105E9F477FF2A
:100A00001AC06DE20E9459048C0144275527BA018F
:100A10004C195D096E097F092AE0CE010E94860407
:100A2000800F911FDF91CF911F910F91FF90EF9059
:100A3000DF90CF9008952AE0B701A601CE01DF91A3
:100A4000CF911F910F91FF90EF90DF90CF900C947A
:100A500086049A01AB01662757FD6095762F0C94AA
:100A6000DF042115310541F4DC01ED91FC91019089
:100A7000F081E02D642F09940C9486049A01462F8E
:100A800050E060E070E00C9431054F925F926F92FD
:100A90007F928F929F92AF92BF92CF92DF92EF920E
:100AA000FF920F931F93CF93DF93EC016A017B01B9
:100AB000B22E9A01AB01C701B6010E94300E882305
:100AC00019F06DE773E027C026013701E89477F845
:100AD0002FEF3FEF4FE75FE7C301B2010E94300EF7
:100AE00081110DC02FEF3FEF4FE75FE7C301B20168
:100AF0000E947A0C18161CF461E873E00CC02FEF0A
:100B00003FEF4FE75FE4C701B6010E94C90D181619
:100B1000ACF465E873E0CE01DF91CF911F910F91A6
:100B2000FF90EF90DF90CF90BF90AF909F908F900D
:100B30007F906F905F904F900C9441042FEF3FEFA8
:100B40004FE75FECC701B6010E947A0C87FDE1CF49
:100B500020E030E0A901C701B6010E947A0C87FFAE
:100B60000AC06DE2CE010E9459048C01F7FAF0949C
:100B7000F7F8F09402C000E010E0A12C60E070E013
:100B800080E09FE3AB1441F020E030E040E251E42C
:100B90000E947E0CA394F6CF9B01AC01C701B60165
:100BA0000E94160C6B017C010E94EB0C2B013C0196
:100BB0000E94170D9B01AC01C701B6010E94150CE4
:100BC0006B017C012AE0B301A201CE010E948604E0
:100BD000080F191FBB2039F069E273E0CE010E94B3
:100BE0004104080F191F7B2C772041F120E030E0F1
:100BF00040E251E4C701B6010E94CD0D6B017C01BA
:100C00000E94E60C4B01AA2497FCA094BA2C2AE07F
:100C100030E0B501A401CE010E94DF04080F191FC6
:100C2000C501B4010E94190D9B01AC01C701B601B9
:100C30000E94150C6B017C017A94D6CFC801DF911C
:100C4000CF911F910F91FF90EF90DF90CF90BF90C9
:100C5000AF909F908F907F906F905F904F9008958E
:100C60000C9445050E94DE030E940301CBE0D7E00F
:100C70000E9478012097E1F30E940B07F9CFFC0155
:100C800024853585F901E05CFF4F808191813296A2
:100C900020813181821B930B8F7399270895FC016A
:100CA00084859585FC01E05CFF4F4081518132963F
:100CB000208131814217530741F00190F081E02DEE
:100CC000E80FF91F808190E008958FEF9FEF08955E
:100CD000FC0184859585FC01E05CFF4F40815181DA
:100CE0003296208131814217530779F0A081B1817A
:100CF000A80FB91F8C91208131812F5F3F4F2F7337
:100D000033273183208390E008958FEF9FEF08957C
:100D1000FC0181A1882329F0A489B5898C9186FFE3
:100D2000FBCF11A20895CF93DF93FC012685378571
:100D3000D901A05CBF4F8D919C91119701968F7343
:100D40009927E901CE5BDF4F4881598184179507C8
:100D5000D9F30D90BC91A02DA20FB31F6C93A68563
:100D6000B785A05CBF4F11969C938E93A689B789D7
:100D70002C9181E090E0078C02C0880F991F0A94A3
:100D8000E2F7282B2C9381E081A30488F589E02DDC
:100D900080818064808381E090E0DF91CF9108952D
:100DA00008951F920F920FB60F9211242F933F9325
:100DB0004F938F939F93EF93FF938091C00082FD99
:100DC0001CC04091C60080917504909176040196F4
:100DD0008F739927209177043091780482179307B5
:100DE00071F0E0917504F0917604EB5CFB4F408369
:100DF000909376048093750402C08091C600FF91A1
:100E0000EF919F918F914F913F912F910F900FBE36
:100E10000F901F9018958FEC93E00E943F06892B4E
:100E200011F00C94D00608951F920F920FB60F92F6
:100E300011242F933F938F939F93EF93FF932091D0
:100E40003104309132048091330490913404281796
:100E5000390731F48091C1008F7D8093C10014C0A7
:100E6000E0913304F0913404EF50FC4F20818091E5
:100E700033049091340401968F739927909334042E
:100E8000809333042093C600FF91EF919F918F913F
:100E90003F912F910F900FBE0F901F901895BF920A
:100EA000CF92DF92EF92FF92CF93DF93EC016A0132
:100EB0007B01B22E411581EE580761057105F9F0ED
:100EC000EC89FD8981E090E008A002C0880F991F9D
:100ED0000A94E2F7808360E079E08DE390E0A70177
:100EE00096010E94340E215031094109510956954D
:100EF000479537952795211580E1380798F0EC89BB
:100F0000FD89108260E874E88EE190E0A701960107
:100F10000E94340E215031094109510956954795D7
:100F200037952795E889F9893083EA89FB892083F9
:100F3000E88DF98DB082EE89FF89408181E090E0F3
:100F40009C010C8C02C0220F331F0A94E2F7422B43
:100F50004083EE89FF8940819C010D8C02C0220FE5
:100F6000331F0A94E2F7422B4083EE89FF894081C8
:100F70009C010E8C02C0220F331F0A94E2F7422B11
:100F80004083EE89FF8920810F8C02C0880F991F52
:100F90000A94E2F7809582238083DF91CF91FF90BE
:100FA000EF90DF90CF90BF9008951092D2031092EF
:100FB000D10388EE93E0A0E0B0E08093D303909358
:100FC000D403A093D503B093D6038DE893E0909318
:100FD000D0038093CF0385E394E09093DC03809368
:100FE000DB0381EF93E09093DE038093DD0385ECD8
:100FF00090E09093E0038093DF0384EC90E0909383
:10100000E2038093E10380EC90E09093E40380930B
:10101000E30381EC90E09093E6038093E50382EC98
:1010200090E09093E8038093E70386EC90E0909340
:10103000EA038093E90384E08093EB0383E08093E9
:10104000EC0387E08093ED0385E08093EE0381E07D
:101050008093EF0308951F93CF93DF93EC01162F36
:101060000E940D0B1E87DF91CF911F910895CF92A3
:10107000DF92EF92FF920F931F93CF93DF93CDB741
:10108000DEB728970FB6F894DEBF0FBECDBF8C0138
:101090000E949909C8010E94FB0A6AEF70E080E093
:1010A00090E00E94AD036E0189E0C80ED11C41E0C2
:1010B000BE016F5F7F4FC8010E94300B8823E1F1B2
:1010C00069E973E08FEC93E00E945704FE013196CA
:1010D0007F01F70161917F0140E150E08FEC93E0E7
:1010E0000E943E05EC14FD04A1F760EA73E08FEC6A
:1010F00093E00E94570467E0CE0101960E94CD0B59
:1011000040E150E0682F8FEC93E00E943E058FECA9
:1011100093E00E94600467E0CE0101960E94CD0B2F
:1011200098858913C4CF8981803129F0883219F0DC
:10113000823209F0BCCF81E028960FB6F894DEBF6A
:101140000FBECDBFDF91CF911F910F91FF90EF9018
:10115000DF90CF9008959F92AF92BF92CF92DF928F
:10116000EF92FF920F931F93CF93DF93CDB7DEB72C
:1011700029970FB6F894DEBF0FBECDBF8C016B016F
:10118000942E0E949909B601C8010E94D30A40E03A
:101190006EEBC8010E94360ACE0101967C015E0109
:1011A0009AE0A90EB11CC8010E94B60AF70181930A
:1011B0007F01EA15FB05B9F7F0E29F9EA00111241B
:1011C0008D818F79842B8D83C8010E949909B60186
:1011D000C8010E94D30A40E06EE4C8010E94360AAA
:1011E00020E043E050E0BE016D5F7F4FC8010E94E8
:1011F000780A29960FB6F894DEBF0FBECDBFDF91F7
:10120000CF911F910F91FF90EF90DF90CF90BF9003
:10121000AF909F900895AF92BF92CF92DF92EF92DE
:10122000FF920F931F93CF93DF93EC016B015A0151
:101230008901BA010E94D30A40E064E4CE010E9411
:10124000360A58EEE52E53E0F52ECE010E940B0A29
:1012500081110CC061E070E080E090E00E94AD037D
:10126000B1E0EB1AF108E114F10479F7CE010E9424
:101270009909B501CE010E94D30A40E06EEBCE0180
:101280000E94360A5801E12CF12CCE010E94B60AC8
:10129000D5018D935D01BFEFEB1AFB0AE9E0EE1675
:1012A000F10499F7D80111968C91119790E0982F3D
:1012B00088272C91822BCD28A9F0BC0133E0660F42
:1012C000771F3A95E1F717968C9117978031D1F4F3
:1012D00016962C918CE090E0821B9109607F680F3C
:1012E000791F10C0D8011496EC91E076F0E024E06C
:1012F000F695E7952A95E1F7E855FC4F60817181F5
:1013000068237923882777FD8095982F0E94190DEF
:1013100020E030E040E85DE30E94CD0DDF91CF9109
:101320001F910F91FF90EF90DF90CF90BF90AF9003
:101330000895FF920F931F93CF93DF93FC010081D9
:10134000C181D281F8948981F02EF0948F21898314
:1013500078941DE7115029F182E090E00E94D303B8
:1013600088818023B9F3F8948A818F218A838981C7
:10137000802B8983789480EE91E00E94D303F894C7
:1013800089818F21898386E490E00E94D30388813C
:10139000802311E009F010E078948AE991E00E943E
:1013A000D303812FDF91CF911F910F91FF9008956B
:1013B0001F93CF93DF93FC011081C181D281912FC4
:1013C000909560FF12C0F8948A8189238A8389816D
:1013D000812B89838AE090E00E94D3038A81812B4C
:1013E0008A83789487E390E011C0F8948A818923F6
:1013F0008A838981812B898381E490E00E94D303D1
:101400008A81812B8A83789485E090E0DF91CF9167
:101410001F910C94D3030F931F93CF93DF93FC0181
:101420001081C181D281F8948981812B89838A813D
:10143000012F009580238A8383E090E00E94D303EC
:101440008981802389838AE090E00E94D303C88148
:10145000789485E390E00E94D3031C2381E009F493
:1014600080E0DF91CF911F910F910895CF92DF928D
:10147000EF92FF920F931F93CF93DF931F92CDB7FD
:10148000DEB76C01E62E08E010E0FF24F39461E083
:101490009F2D9E2109F460E0C60149830E94D8096E
:1014A000FF0C0150110949810115110581F7411106
:1014B00015C0F894D6011196ED91FC911297918187
:1014C0008C918095892381831196ED91FC911297DF
:1014D00092818C9180958923828378940F90DF91FB
:1014E000CF911F910F91FF90EF90DF90CF900895D3
:1014F000CF92DF92EF92FF920F931F93CF93DF93E0
:101500001F92CDB7DEB78C017A016B01E60EF71E94
:10151000CE14DF0451F0D6016D916D0140E0C80199
:1015200029830E94360A2981F3CF211115C0F8942E
:10153000D8011196ED91FC91129791818C91809533
:10154000892381831196ED91FC91129792818C9160
:1015500080958923828378940F90DF91CF911F919A
:101560000F91FF90EF90DF90CF900895EF92FF9250
:101570000F931F93CF93DF938C01C8E0D0E0F12C41
:10158000EE24E394C8010E940B0A8111FE28EE0CA0
:1015900021972097B9F78F2DDF91CF911F910F9150
:1015A000FF90EF900895CF92DF92FF920F931F93D9
:1015B000CF93DF931F92CDB7DEB78C01F62E40E0BC
:1015C00065E579830E94360ACF2C7981D72E88E091
:1015D000F82EF60161916F0140E0C8010E94360AC1
:1015E000FA94B9F70F90DF91CF911F910F91FF906F
:1015F000DF90CF900895FC0113861586148627E0AE
:1016000030E0DF01A20FB31F13961C9221153105A4
:1016100019F021503109F5CF08951F93CF93DF932F
:10162000EC01162F60E0812F0E94D90B612F70E032
:10163000FB01E859FE4FE491E883FB01E458FE4FBB
:10164000E491F0E0EE0FFF1FE057FE4F859194917B
:101650009A838983CE01DF91CF911F910C94FB0A6D
:10166000AF92BF92CF92DF92EF92FF920F931F93B0
:10167000CF93DF931F92CDB7DEB75C01D62EE72E56
:10168000FC018585811164C0C50149830E949909C7
:101690004981811105C0F50113861586148671C034
:1016A000442319F040E060EF02C040E06CEEC50159
:1016B0000E94360A01E0F12CC12C11E0C5010E9404
:1016C0000B0A682FC50169830E940B0A698161308A
:1016D00019F48130B9F433C02F2D30E068131BC0EA
:1016E000F5018385181730F4E20FF31F83818023FF
:1016F00049F402C0181731F060E0193058F4F501D0
:10170000148708C0F501EF0DF11D8381802B8383C1
:1017100061E009C0C12EF501E20FF31F8381902F14
:10172000909589238383C5010E94D8091F5F000F0C
:1017300011F4F39401E0F7E0FF1508F0BFCF113486
:1017400038F0F501C386C11009C081E0858706C065
:10175000F50113861586148680E013C0F501838198
:101760008823B1F3ED2DFE2D80E090E0D501A80F88
:10177000B91F13962C912193019688309105B1F7EA
:1017800081E00F90DF91CF911F910F91FF90EF902B
:10179000DF90CF90BF90AF900895DC0180E0615062
:1017A00038F0ED91E827F0E0E859FF4F8491F7CF4A
:1017B0000895CF93DF9390E0FC01E859FE4F249108
:1017C000FC01E458FE4F8491882349F190E0880F92
:1017D000991FFC01EC55FE4FA591B49186569E4F82
:1017E000FC01C591D4919FB7611108C0F8948C9108
:1017F000209582238C93888182230AC0623051F421
:10180000F8948C91322F309583238C938881822B8E
:10181000888304C0F8948C91822B8C939FBFDF91B6
:10182000CF910895F8940C945C0E5058BB27AA27CA
:101830000ED075C166D130F06BD120F031F49F3FEE
:1018400011F41EF45BC10EF4E095E7FB51C1E92FE2
:1018500077D180F3BA17620773078407950718F0EA
:1018600071F49EF58FC10EF4E0950B2EBA2FA02DCA
:101870000B01B90190010C01CA01A0011124FF273D
:10188000591B99F0593F50F4503E68F11A16F04038
:10189000A22F232F342F4427585FF3CF4695379537
:1018A0002795A795F0405395C9F77EF41F16BA0BFC
:1018B000620B730B840BBAF09150A1F0FF0FBB1FAA
:1018C000661F771F881FC2F70EC0BA0F621F731FF3
:1018D000841F48F4879577956795B795F7959E3F50
:1018E00008F0B3CF9395880F08F09927EE0F9795DE
:1018F00087950895D9D008F481E008950CD00FC1E0
:1019000007D140F0FED030F021F45F3F19F0F0C075
:10191000511139C1F3C014D198F39923C9F3552358
:10192000B1F3951B550BBB27AA27621773078407D2
:1019300038F09F5F5F4F220F331F441FAA1FA9F388
:1019400033D00E2E3AF0E0E830D091505040E6957A
:10195000001CCAF729D0FE2F27D0660F771F881FDB
:10196000BB1F261737074807AB07B0E809F0BB0BCA
:10197000802DBF01FF2793585F4F2AF09E3F5105EE
:1019800068F0B6C000C15F3FECF3983EDCF386958B
:1019900077956795B795F7959F5FC9F7880F911D64
:1019A0009695879597F90895E1E0660F771F881F50
:1019B000BB1F621773078407BA0720F0621B730B03
:1019C000840BBA0BEE1F88F7E095089504D0689455
:1019D000B111D9C00895BCD088F09F5790F0B92FAD
:1019E0009927B751A0F0D1F0660F771F881F991F74
:1019F0001AF0BA95C9F712C0B13081F0C3D0B1E086
:101A00000895C0C0672F782F8827B85F39F0B93F95
:101A1000CCF3869577956795B395D9F73EF4909575
:101A20008095709561957F4F8F4F9F4F0895E894F3
:101A300009C097FB3EF490958095709561957F4F16
:101A40008F4F9F4F9923A9F0F92F96E9BB279395C4
:101A5000F695879577956795B795F111F8CFFAF4D4
:101A6000BB0F11F460FF1BC06F5F7F4F8F4F9F4F05
:101A700016C0882311F096E911C0772321F09EE863
:101A8000872F762F05C0662371F096E8862F70E0C9
:101A900060E02AF09A95660F771F881FDAF7880FA3
:101AA0009695879597F90895990F0008550FAA0BF9
:101AB000E0E8FEEF16161706E807F907C0F0121661
:101AC0001306E407F50798F0621B730B840B950B64
:101AD00039F40A2661F0232B242B252B21F40895B9
:101AE0000A2609F4A140A6958FEF811D811D089556
:101AF00097F99F6780E870E060E008959FEF80ECC1
:101B0000089500240A941616170618060906089563
:101B100000240A9412161306140605060895092EC9
:101B20000394000C11F4882352F0BB0F40F4BF2B38
:101B300011F460FF04C06F5F7F4F8F4F9F4F089578
:101B400057FD9058440F551F59F05F3F71F047956E
:101B5000880F97FB991F61F09F3F79F08795089553
:101B6000121613061406551FF2CF4695F1DF08C072
:101B7000161617061806991FF1CF8695710561058F
:101B800008940895E894BB2766277727CB0197F937
:101B900008958ADF08F48FEF08950BD0C0CFB1DF2E
:101BA00028F0B6DF18F0952309F0A2CFA7CF1124B3
:101BB000EACFC6DFA0F3959FD1F3950F50E0551FF4
:101BC000629FF001729FBB27F00DB11D639FAA2792
:101BD000F00DB11DAA1F649F6627B00DA11D661FE1
:101BE000829F2227B00DA11D621F739FB00DA11D02
:101BF000621F839FA00D611D221F749F3327A00DBC
:101C0000611D231F849F600D211D822F762F6A2F57
:101C100011249F5750408AF0E1F088234AF0EE0FDC
:101C2000FF1FBB1F661F771F881F91505040A9F7E9
:101C30009E3F510570F05CCFA6CF5F3FECF3983E1E
:101C4000DCF3869577956795B795F795E7959F5F50
:101C5000C1F7FE2B880F911D9695879597F90895EA
:101C600023DF880B990B0895A1E21A2EAA1BBB1B38
:101C7000FD010DC0AA1FBB1FEE1FFF1FA217B30758
:101C8000E407F50720F0A21BB30BE40BF50B661F6E
:101C9000771F881F991F1A9469F760957095809532
:101CA00090959B01AC01BD01CF010895EE0FFF1F80
:0C1CB0000590F491E02D0994F894FFCF0A
:101CBC00014E6F2044533138206465766963657337
:101CCC0020666F756E64206F6E204F6E655769725B
:101CDC006520627573732E0054657374696E67208A
:101CEC0070726F6772616D20746F206368617261CE
:101CFC0063746572697A65204453313842323020FE
:101D0C0074656D70657261747572652073656E7340
:101D1C006F727300436F6E6E6563742073656E73C0
:101D2C006F727320746F2041726475696E6F2077C7
:101D3C0069746820332D7769726520636F6E6E65E8
:101D4C006374696F6E2E2020004E4F5420696E20F4
:101D5C00706172617369746963206D6F64650043AF
:101D6C006F6E6E6563742064617461202879656C94
:101D7C006C6F772F77686974652920746F20706990
:101D8C006E2000207769746820344B37204F686DC3
:101D9C002070756C6C757020746F20335633205620
:101DAC0043430050726F6772616D206379636C6599
:101DBC0073207468726F75676820616C6C20445373
:101DCC0031384232302773206F6E20746865204F93
:101DDC006E6557697265206275730009616E6420C7
:101DEC007265616473207468652074656D70206F12
:101DFC0066662065616368206F6E652061742039AA
:101E0C002D2C2031302D2C2031312D2C20616E6465
:101E1C002031322D62697400097265736F6C7574B0
:101E2C00696F6E73202D2D20302E352C20302E32E4
:101E3C00352C20302E3132352C20616E6420302E22
:101E4C003036323520646567726565732043004E09
:101E5C00455854205343414E00524F4D203D0043B2
:101E6C005243206973206E6F742076616C69642113
:101E7C0020307800202043686970203D2044533185
:101E8C003853323000202043686970203D20445381
:101E9C00313842323000202043686970203D2044A4
:101EAC005331383232004465766963652077697442
:101EBC006820636F646520307800206973206E6F32
:101ECC0074206120445331387832302066616D695A
:101EDC006C79206465766963652E0053656E736F4B
:101EEC00722049443A202700270944617461203D3F
:101EFC002000204352433D0009436F6E76207469E5
:101F0C006D65286D7329203D2000202054656D706F
:101F1C0065726174757265203D2000460030313267
:101F2C00333435363738394142434445466E616E59
:101F3C0000696E66006F766600000000009306195B
:101F4C00043F0668064F068806416464723A200016
:101F5C0020435243203D2000F8FFFCFFFEFFFFFF13
:00000001FF
