:100000000C94D9000C9401010C9401010C94010191
:100010000C9401010C9401010C9401010C94010158
:100020000C9401010C9401010C9401010C94010148
:100030000C9401010C9401010C9401010C94010138
:100040000C9470020C9401010C94F9050C943C067C
:100050000C9401010C9401010C9401010C94010118
:100060000C9401010C940101005EBCE2613FDD8350
:10007000C29C7E20A3FD1F419DC3217FFCA2401E88
:100080005F01E3BD3E6082DC237D9FC1421CFEA078
:10009000E1BF5D0380DE3C62BEE0025CDF81633D68
:1000A0007C22C09E1D43A1FF4618FAA427799BC558
:1000B00084DA3866E5BB5907DB856739BAE4065848
:1000C0001947A5FB7826C49A653BD987045AB8E638
:1000D000A7F91B45C6987A24F8A6441A99C7257B28
:1000E0003A6486D85B05E7B98CD2306EEDB3510F18
:1000F0004E10F2AC2F7193CD114FADF3702ECC9208
:10010000D38D6F31B2EC0E50AFF1134DCE90722CF7
:100110006D33D18F0C52B0EE326C8ED0530DEFB1E7
:10012000F0AE4C1291CF2D73CA947628ABF51749D7
:100130000856B4EA6937D58B5709EBB536688AD4C7
:1001400095CB2977F4AA4816E9B7550B88D6346AB7
:100150002B7597C94A14F6A8742AC896154BA9F7A7
:10016000B6E80A54D7896B35010204081020408094
:1001700001020408102001020408102004040404F1
:100180000404040402020202020203030303030341
:1001900000000000230026002900000000002500C8
:1001A00028002B0000000000240027002A006B021A
:1001B000F80611241FBECFEFD8E0DEBFCDBF11E09F
:1001C000A0E0B1E0EAEAF7E102C005900D92A83B99
:1001D000B107D9F722E0A8EBB1E001C01D92A93721
:1001E000B207E1F711E0C2EBD1E004C02297FE01B3
:1001F0000E94CF0BCE3AD107C9F70E945A050C9442
:1002000089090C94000040E855E260E070E08FEC52
:1002100091E00C947706BF92CF92DF92EF92FF921B
:100220000F931F93CF93DF93CDB7DEB764970FB6CD
:10023000F894DEBF0FBECDBF41E0BE01635F7F4FCC
:1002400088EB91E00E94A708811109C088EB91E03A
:100250000E9472086AEF70E080E090E02AC160E0DE
:1002600071E08FEC91E00E9487038E01035F1F4FC6
:100270007E0185E1E80EF11CE091CF01F091D00103
:100280000190F081E02D60E28FEC91E00995F8019A
:1002900061918F0140E150E08FEC91E00E94660493
:1002A0000E151F0549F767E0CE010D960E9444091F
:1002B0009C89891719F066E071E01DC08D85823236
:1002C00081F0883259F08031A1F468E171E08FEC5F
:1002D00091E00E94A403DD24D39412C069E271E08E
:1002E00002C06AE371E08FEC91E00E94A403D12C7C
:1002F00007C06AE471E08FEC91E00E94A403DBC0C8
:1003000088EB91E00E944E07BE01635F7F4F88EB50
:1003100091E00E944A0841E064E488EB91E00E9489
:10032000EB0768EE73E080E090E00E94DD0288EB6E
:1003300091E00E944E07182FBE01635F7F4F88EB4C
:1003400091E00E944A0840E06EEB88EB91E00E9449
:10035000EB0761E771E08FEC91E00E94870340E1D9
:1003600050E0612F8FEC91E00E94660467E971E034
:100370008FEC91E00E9487038E010F5F1F4F7E017B
:10038000FAE0EF0EF11CB02EC12E88EB91E00E9436
:100390002D08682FF80181938F0140E150E08FEC28
:1003A00091E00E94660467E971E08FEC91E00E94A1
:1003B00087030E151F0549F76AE771E08FEC91E09E
:1003C0000E94870368E08B2D9C2D0E94440940E128
:1003D00050E0682F8FEC91E00E9466046A8170E023
:1003E000762F66278981682BDD2089F083E0660FF0
:1003F000771F8A95E1F788858031A9F42F818CE0F9
:1004000090E0821B9109607F680F791F0CC08D817D
:10041000807611F4687F07C0803211F46C7F03C0CE
:10042000803409F46E7F882777FD8095982F0E948D
:10043000900A20E030E040E85DE30E94440B6B014D
:100440007C0160E871E08FEC91E00E94870322E07C
:1004500030E0B701A6018FEC91E00E94580561E9F8
:1004600071E08FEC91E00E94870326E636E646EEC7
:100470005FE3C701B6010E94440B20E030E040E09A
:1004800052E40E948D09AB01BC0122E030E08FEC08
:1004900091E00E94580569E971E08FEC91E00E94BB
:1004A000A4038FEC91E00E94900368E273E280E085
:1004B00090E00E94DD0264960FB6F894DEBF0FBE96
:1004C000CDBFDF91CF911F910F91FF90EF90DF9003
:1004D000CF90BF90089565E088EB91E00C9484087C
:1004E0001F920F920FB60F9211242F933F938F9369
:1004F0009F93AF93BF938091C7019091C801A09142
:10050000C901B091CA013091C60123E0230F2D37F4
:1005100020F40196A11DB11D05C026E8230F029607
:10052000A11DB11D2093C6018093C7019093C801FE
:10053000A093C901B093CA018091CB019091CC01E5
:10054000A091CD01B091CE010196A11DB11D809366
:10055000CB019093CC01A093CD01B093CE01BF917C
:10056000AF919F918F913F912F910F900FBE0F9060
:100570001F9018953FB7F8948091CB019091CC01D2
:10058000A091CD01B091CE0126B5A89B05C02F3F0B
:1005900019F00196A11DB11D3FBF6627782F892F45
:1005A0009A2F620F711D811D911D42E0660F771F0A
:1005B000881F991F4A95D1F70895CF92DF92EF9245
:1005C000FF92CF93DF936B017C010E94BA02EB0193
:1005D000C114D104E104F10479F00E94BA026C1B49
:1005E0007D0B683E7340A0F381E0C81AD108E10892
:1005F000F108C851DC4FECCFDF91CF91FF90EF9025
:10060000DF90CF9008950197009739F0880F991FD8
:10061000880F991F02970197F1F70895789484B590
:10062000826084BD84B5816084BD85B5826085BDEE
:1006300085B5816085BDEEE6F0E0808181608083D4
:10064000E1E8F0E0108280818260808380818160B7
:100650008083E0E8F0E0808181608083E1EBF0E07E
:10066000808184608083E0EBF0E080818160808322
:10067000EAE7F0E08081846080838081826080830B
:100680008081816080838081806880831092C10036
:100690000895CF92DF92EF92FF920F931F93CF9323
:1006A000DF936C017A01EB01E60EF71E00E010E02B
:1006B000CE15DF0561F06991D601ED91FC910190B5
:1006C000F081E02DC6010995080F191FF1CFC8016F
:1006D000DF91CF911F910F91FF90EF90DF90CF901E
:1006E00008956115710581F0DB010D900020E9F797
:1006F000AD0141505109461B570BDC01ED91FC91B6
:100700000280F381E02D099480E090E008950C943C
:100710007103DC01ED91FC910190F081E02D0994D1
:100720000F931F93CF93DF93EC016DE00E94890339
:100730008C016AE0CE010E948903800F911FDF9136
:10074000CF911F910F9108950F931F93CF93DF9334
:10075000EC010E9471038C01CE010E949003800F76
:10076000911FDF91CF911F910F9108958F929F92CA
:10077000AF92BF92CF92DF92EF92FF920F931F93AF
:10078000CF93DF93CDB7DEB7A1970FB6F894DEBF56
:100790000FBECDBF7C01C42EE52FCB01D22E19A2F6
:1007A00021E02D1510F02AE0D22E8E010F5D1F4F93
:1007B0008D2C912CA12CB12C6C2D7E2FA501940198
:1007C0000E94AB0B8C2DD29E80191124015011096F
:1007D0008A3014F4805D01C0895CF80180832115A2
:1007E00031054105510521F0C22EE32FCA01E4CFA6
:1007F000B801C7010E947103A1960FB6F894DEBF3D
:100800000FBECDBFDF91CF911F910F91FF90EF9061
:10081000DF90CF90BF90AF909F908F900895CF9230
:10082000DF92EF92FF920F931F93CF93DF93EC0130
:100830006A017B012115310579F4E881F981019084
:10084000F081E02D642FDF91CF911F910F91FF90E8
:10085000EF90DF90CF9009942A303105E9F477FFCB
:100860001AC06DE20E9489038C0144275527BA0102
:100870004C195D096E097F092AE0CE010E94B6037A
:10088000800F911FDF91CF911F910F91FF90EF90FB
:10089000DF90CF9008952AE0B701A601CE01DF9145
:1008A000CF911F910F91FF90EF90DF90CF900C941C
:1008B000B6032115310541F4DC01ED91FC91019065
:1008C000F081E02D642F09940C94B6039A01462F11
:1008D00050E060E070E00C9459044F925F926F9288
:1008E0007F928F929F92AF92BF92CF92DF92EF92C0
:1008F000FF920F931F93CF93DF93EC016A017B016B
:10090000B22E9A01AB01C701B6010E94A70B882342
:1009100019F06CE971E027C026013701E89477F8F7
:100920002FEF3FEF4FE75FE7C301B2010E94A70B34
:1009300081110DC02FEF3FEF4FE75FE7C301B20119
:100940000E94F10918161CF460EA71E00CC02FEF48
:100950003FEF4FE75FE4C701B6010E94400B181656
:10096000ACF464EA71E0CE01DF91CF911F910F9159
:10097000FF90EF90DF90CF90BF90AF909F908F90BF
:100980007F906F905F904F900C9471032FEF3FEF2B
:100990004FE75FECC701B6010E94F10987FDE1CF87
:1009A00020E030E0A901C701B6010E94F10987FFEC
:1009B0000AC06DE2CE010E9489038C01F7FAF0941F
:1009C000F7F8F09402C000E010E0A12C60E070E0C5
:1009D00080E09FE3AB1441F020E030E040E251E4DE
:1009E0000E94F509A394F6CF9B01AC01C701B601A3
:1009F0000E948D096B017C010E94620A2B013C015F
:100A00000E948E0A9B01AC01C701B6010E948C09AD
:100A10006B017C012AE0B301A201CE010E94B60362
:100A2000080F191FBB2039F06FE671E0CE010E945C
:100A30007103080F191F7B2C772041F120E030E073
:100A400040E251E4C701B6010E94440B6B017C01F6
:100A50000E945D0A4B01AA2497FCA094BA2C2AE0BC
:100A600030E0B501A401CE010E940F04080F191F48
:100A7000C501B4010E94900A9B01AC01C701B601F7
:100A80000E948C096B017C017A94D6CFC801DF915A
:100A9000CF911F910F91FF90EF90DF90CF90BF907B
:100AA000AF909F908F907F906F905F904F90089540
:100AB0000C946D040E940E030E940301C3E3D6E070
:100AC0000E940B012097E1F30E943306F9CFFC014D
:100AD00024853585F901E05CFF4F80819181329654
:100AE00020813181821B930B8F7399270895FC011C
:100AF00084859585FC01E05CFF4F408151813296F1
:100B0000208131814217530741F00190F081E02D9F
:100B1000E80FF91F808190E008958FEF9FEF08950F
:100B2000FC0184859585FC01E05CFF4F408151818B
:100B30003296208131814217530779F0A081B1812B
:100B4000A80FB91F8C91208131812F5F3F4F2F73E8
:100B500033273183208390E008958FEF9FEF08952E
:100B6000FC0181A1882329F0A489B5898C9186FF95
:100B7000FBCF11A20895CF93DF93FC012685378523
:100B8000D901A05CBF4F8D919C91119701968F73F5
:100B90009927E901CE5BDF4F48815981841795077A
:100BA000D9F30D90BC91A02DA20FB31F6C93A68515
:100BB000B785A05CBF4F11969C938E93A689B78989
:100BC0002C9181E090E0078C02C0880F991F0A9455
:100BD000E2F7282B2C9381E081A30488F589E02D8E
:100BE00080818064808381E090E0DF91CF910895DF
:100BF00008951F920F920FB60F9211242F933F93D7
:100C00004F938F939F93EF93FF938091C00082FD4A
:100C10001CC04091C60080917502909176020196A9
:100C20008F7399272091770230917802821793076A
:100C300071F0E0917502F0917602EB5CFD4F40831C
:100C4000909376028093750202C08091C600FF9156
:100C5000EF919F918F914F913F912F910F900FBEE8
:100C60000F901F9018958FEC91E00E946705892BDB
:100C700011F00C94F80508951F920F920FB60F9281
:100C800011242F933F938F939F93EF93FF93209182
:100C90003102309132028091330290913402281750
:100CA000390731F48091C1008F7D8093C10014C059
:100CB000E0913302F0913402EF50FE4F2081809199
:100CC00033029091340201968F73992790933402E6
:100CD000809333022093C600FF91EF919F918F91F3
:100CE0003F912F910F900FBE0F901F901895CF92AC
:100CF000DF92EF92FF92CF93DF93EC016A017B01C9
:100D0000411581EE580761057105F9F0EC89FD89FF
:100D100081E090E008A002C0880F991F0A94E2F7D2
:100D2000808360E079E08DE390E0A70196010E9466
:100D3000AB0B21503109410951095695479537951B
:100D40002795211580E1380798F0EC89FD891082FC
:100D500060E874E88EE190E0A70196010E94AB0B79
:100D600021503109410951095695479537952795E5
:100D7000E889F9893083EA89FB89208319A2EE8901
:100D8000FF89408181E090E09C010C8C02C0220F21
:100D9000331F0A94E2F7422B4083EE89FF8940819A
:100DA0009C010D8C02C0220F331F0A94E2F7422BE4
:100DB0004083EE89FF8940819C010E8C02C0220F86
:100DC000331F0A94E2F7422B4083EE89FF8920818A
:100DD0000F8C02C0880F991F0A94E2F78095822336
:100DE0008083DF91CF91FF90EF90DF90CF900895B7
:100DF0001092D2011092D10188EE93E0A0E0B0E011
:100E00008093D3019093D401A093D501B093D601E0
:100E10008CEA91E09093D0018093CF0185E392E03A
:100E20009093DC018093DB0181EF91E09093DE01F0
:100E30008093DD0185EC90E09093E0018093DF01E9
:100E400084EC90E09093E2018093E10180EC90E0EB
:100E50009093E4018093E30181EC90E09093E601AC
:100E60008093E50182EC90E09093E8018093E701A4
:100E700086EC90E09093EA018093E90184E080930E
:100E8000EB0183E08093EC0187E08093ED0185E046
:100E90008093EE0181E08093EF010895FF920F931C
:100EA0001F93CF93DF93FC010081C181D281F8941D
:100EB0008981F02EF0948F21898378941DE7115059
:100EC00029F182E090E00E94030388818023B9F336
:100ED000F8948A818F218A838981802B89837894F1
:100EE00080EE91E00E940303F89489818F21898329
:100EF00086E490E00E9403038881802311E009F0DA
:100F000010E078948AE991E00E940303812FDF9139
:100F1000CF911F910F91FF9008951F93CF93DF936F
:100F2000FC011081C181D281912F909560FF12C088
:100F3000F8948A8189238A838981812B89838AE035
:100F400090E00E9403038A81812B8A83789487E34F
:100F500090E011C0F8948A8189238A838981812B4A
:100F6000898381E490E00E9403038A81812B8A8334
:100F7000789485E090E0DF91CF911F910C9403036A
:100F80000F931F93CF93DF93FC011081C181D28116
:100F9000F8948981812B89838A81012F0095802390
:100FA0008A8383E090E00E94030389818023898300
:100FB0008AE090E00E940303C881789485E390E082
:100FC0000E9403031C2381E009F480E0DF91CF91AC
:100FD0001F910F910895CF92DF92EF92FF920F939E
:100FE0001F93CF93DF931F92CDB7DEB76C01E62E30
:100FF00008E010E0FF24F39461E09F2D9E2109F4A6
:1010000060E0C60149830E948D07FF0C0150110961
:1010100049810115110581F7411115C0F894D601D8
:101020001196ED91FC91129791818C918095892375
:1010300081831196ED91FC91129792818C9180950C
:101040008923828378940F90DF91CF911F910F9124
:10105000FF90EF90DF90CF900895EF92FF920F9363
:101060001F93CF93DF938C01C8E0D0E0F12CEE24E6
:10107000E394C8010E94C0078111FE28EE0C21975D
:101080002097B9F78F2DDF91CF911F910F91FF908E
:10109000EF900895CF92DF92FF920F931F93CF931B
:1010A000DF931F92CDB7DEB78C01F62E40E065E5E9
:1010B00079830E94EB07CF2C7981D72E88E0F82E18
:1010C000F60161916F0140E0C8010E94EB07FA94BC
:1010D000B9F70F90DF91CF911F910F91FF90DF90A3
:1010E000CF900895FC0113861586148627E030E022
:1010F000DF01A20FB31F13961C922115310519F0C1
:1011000021503109F5CF08951F93CF93DF93EC0160
:10111000162F60E0812F0E945009612F70E0FB01C3
:10112000E859FE4FE491E883FB01E458FE4FE49157
:10113000F0E0EE0FFF1FE057FE4F859194919A83E8
:101140008983CE01DF91CF911F910C947208AF92E9
:10115000BF92CF92DF92EF92FF920F931F93CF93A4
:10116000DF931F92CDB7DEB75C01D62EE72EFC01D0
:101170008585811164C0C50149830E944E0749815C
:10118000811105C0F50113861586148671C04423AC
:1011900019F040E060EF02C040E06CEEC5010E9433
:1011A000EB0701E0F12CC12C11E0C5010E94C00742
:1011B000682FC50169830E94C0076981613019F4F5
:1011C0008130B9F433C02F2D30E068131BC0F50116
:1011D0008385181730F4E20FF31F8381802349F4CD
:1011E00002C0181731F060E0193058F4F501148787
:1011F00008C0F501EF0DF11D8381802B838361E031
:1012000009C0C12EF501E20FF31F8381902F909545
:1012100089238383C5010E948D071F5F000F11F48E
:10122000F39401E0F7E0FF1508F0BFCF113438F078
:10123000F501C386C11009C081E0858706C0F501AC
:1012400013861586148680E013C0F50183818823F8
:10125000B1F3ED2DFE2D80E090E0D501A80FB91F70
:1012600013962C912193019688309105B1F781E076
:101270000F90DF91CF911F910F91FF90EF90DF9032
:10128000CF90BF90AF900895DC0180E0615038F0BE
:10129000ED91E827F0E0E859FF4F8491F7CF0895EA
:1012A000CF93DF9390E0FC01E859FE4F2491FC01BD
:1012B000E458FE4F8491882349F190E0880F991FEC
:1012C000FC01EC55FE4FA591B49186569E4FFC0152
:1012D000C591D4919FB7611108C0F8948C91209565
:1012E00082238C93888182230AC0623051F4F8945F
:1012F0008C91322F309583238C938881822B888325
:1013000004C0F8948C91822B8C939FBFDF91CF9176
:101310000895F8940C94D30B5058BB27AA270ED0ED
:1013200075C166D130F06BD120F031F49F3F11F4DC
:101330001EF45BC10EF4E095E7FB51C1E92F77D1B4
:1013400080F3BA17620773078407950718F071F4E2
:101350009EF58FC10EF4E0950B2EBA2FA02D0B0138
:10136000B90190010C01CA01A0011124FF27591BEA
:1013700099F0593F50F4503E68F11A16F040A22FF0
:10138000232F342F4427585FF3CF46953795279561
:10139000A795F0405395C9F77EF41F16BA0B620B60
:1013A000730B840BBAF09150A1F0FF0FBB1F661FA7
:1013B000771F881FC2F70EC0BA0F621F731F841FEA
:1013C00048F4879577956795B795F7959E3F08F010
:1013D000B3CF9395880F08F09927EE0F97958795CF
:1013E0000895D9D008F481E008950CD00FC107D139
:1013F00040F0FED030F021F45F3F19F0F0C0511101
:1014000039C1F3C014D198F39923C9F35523B1F32B
:10141000951B550BBB27AA2762177307840738F063
:101420009F5F5F4F220F331F441FAA1FA9F333D0C2
:101430000E2E3AF0E0E830D091505040E695001C76
:10144000CAF729D0FE2F27D0660F771F881FBB1F32
:10145000261737074807AB07B0E809F0BB0B802D0C
:10146000BF01FF2793585F4F2AF09E3F510568F058
:10147000B6C000C15F3FECF3983EDCF386957795EC
:101480006795B795F7959F5FC9F7880F911D96955A
:10149000879597F90895E1E0660F771F881FBB1FB6
:1014A000621773078407BA0720F0621B730B840B63
:1014B000BA0BEE1F88F7E095089504D06894B11137
:1014C000D9C00895BCD088F09F5790F0B92F9927C4
:1014D000B751A0F0D1F0660F771F881F991F1AF03F
:1014E000BA95C9F712C0B13081F0C3D0B1E0089508
:1014F000C0C0672F782F8827B85F39F0B93FCCF389
:10150000869577956795B395D9F73EF49095809534
:10151000709561957F4F8F4F9F4F0895E89409C054
:1015200097FB3EF490958095709561957F4F8F4F16
:101530009F4F9923A9F0F92F96E9BB279395F6952C
:10154000879577956795B795F111F8CFFAF4BB0FAA
:1015500011F460FF1BC06F5F7F4F8F4F9F4F16C00E
:10156000882311F096E911C0772321F09EE8872F98
:10157000762F05C0662371F096E8862F70E060E054
:101580002AF09A95660F771F881FDAF7880F9695CD
:10159000879597F90895990F0008550FAA0BE0E871
:1015A000FEEF16161706E807F907C0F01216130625
:1015B000E407F50798F0621B730B840B950B39F465
:1015C0000A2661F0232B242B252B21F408950A26CB
:1015D00009F4A140A6958FEF811D811D089597F90B
:1015E0009F6780E870E060E008959FEF80EC0895C9
:1015F00000240A94161617061806090608950024F2
:101600000A9412161306140605060895092E03946B
:10161000000C11F4882352F0BB0F40F4BF2B11F4DF
:1016200060FF04C06F5F7F4F8F4F9F4F089557FD3E
:101630009058440F551F59F05F3F71F04795880F40
:1016400097FB991F61F09F3F79F0879508951216D7
:1016500013061406551FF2CF4695F1DF08C0161683
:1016600017061806991FF1CF869571056105089434
:101670000895E894BB2766277727CB0197F908954B
:101680008ADF08F48FEF08950BD0C0CFB1DF28F0C8
:10169000B6DF18F0952309F0A2CFA7CF1124EACF27
:1016A000C6DFA0F3959FD1F3950F50E0551F629FC1
:1016B000F001729FBB27F00DB11D639FAA27F00DAB
:1016C000B11DAA1F649F6627B00DA11D661F829FD2
:1016D0002227B00DA11D621F739FB00DA11D621FB7
:1016E000839FA00D611D221F749F3327A00D611DD4
:1016F000231F849F600D211D822F762F6A2F1124B6
:101700009F5750408AF0E1F088234AF0EE0FFF1F08
:10171000BB1F661F771F881F91505040A9F79E3F3F
:10172000510570F05CCFA6CF5F3FECF3983EDCF341
:10173000869577956795B795F795E7959F5FC1F77C
:10174000FE2B880F911D9695879597F9089523DFB5
:10175000880B990B0895A1E21A2EAA1BBB1BFD0151
:101760000DC0AA1FBB1FEE1FFF1FA217B307E40780
:10177000F50720F0A21BB30BE40BF50B661F771FD8
:10178000881F991F1A9469F76095709580959095B8
:101790009B01AC01BD01CF010895EE0FFF1F059025
:0A17A000F491E02D0994F894FFCFB6
:1017AA00524F4D203D00435243206973206E6F749F
:1017BA002076616C69642100202043686970203DAD
:1017CA002044533138533230002020436869702056
:1017DA003D2044533138423230002020436869703A
:1017EA00203D2044533138323200446576696365BE
:1017FA00206973206E6F7420612044533138783227
:10180A00302066616D696C79206465766963652E3E
:10181A00000944617461203D2000204352433D0089
:10182A00202054656D7065726174757265203D2063
:10183A00002043203D202C20002046006E616E00CF
:10184A00696E66006F76660000000000BB054903FA
:08185A00670590057705B00554
:00000001FF
